{
  "_format": "hh-sol-artifact-1",
  "contractName": "MemberRole",
  "sourceName": "contracts/MemberRole.sol",
  "abi": [
    {
      "inputs": [],
      "stateMutability": "nonpayable",
      "type": "constructor"
    },
    {
      "anonymous": false,
      "inputs": [
        {
          "indexed": false,
          "internalType": "address",
          "name": "member",
          "type": "address"
        },
        {
          "indexed": false,
          "internalType": "uint256",
          "name": "activationTime",
          "type": "uint256"
        },
        {
          "indexed": false,
          "internalType": "string",
          "name": "roleType",
          "type": "string"
        }
      ],
      "name": "RoleAdded",
      "type": "event"
    },
    {
      "anonymous": false,
      "inputs": [
        {
          "indexed": false,
          "internalType": "address",
          "name": "member",
          "type": "address"
        },
        {
          "indexed": false,
          "internalType": "bool",
          "name": "newRole",
          "type": "bool"
        },
        {
          "indexed": false,
          "internalType": "uint256",
          "name": "timestamp",
          "type": "uint256"
        }
      ],
      "name": "StateChanged",
      "type": "event"
    },
    {
      "inputs": [
        {
          "internalType": "address",
          "name": "_member",
          "type": "address"
        },
        {
          "internalType": "uint256",
          "name": "_roleType",
          "type": "uint256"
        }
      ],
      "name": "addRole",
      "outputs": [],
      "stateMutability": "nonpayable",
      "type": "function"
    },
    {
      "inputs": [
        {
          "internalType": "string",
          "name": "_roleType",
          "type": "string"
        }
      ],
      "name": "addRoleType",
      "outputs": [],
      "stateMutability": "nonpayable",
      "type": "function"
    },
    {
      "inputs": [
        {
          "internalType": "uint256",
          "name": "",
          "type": "uint256"
        }
      ],
      "name": "addresses",
      "outputs": [
        {
          "internalType": "address",
          "name": "",
          "type": "address"
        }
      ],
      "stateMutability": "view",
      "type": "function"
    },
    {
      "inputs": [
        {
          "internalType": "address",
          "name": "_member",
          "type": "address"
        },
        {
          "internalType": "bool",
          "name": "_newState",
          "type": "bool"
        }
      ],
      "name": "changeRoleStatus",
      "outputs": [],
      "stateMutability": "nonpayable",
      "type": "function"
    },
    {
      "inputs": [],
      "name": "membersCount",
      "outputs": [
        {
          "internalType": "uint256",
          "name": "",
          "type": "uint256"
        }
      ],
      "stateMutability": "view",
      "type": "function"
    },
    {
      "inputs": [
        {
          "internalType": "uint256",
          "name": "",
          "type": "uint256"
        }
      ],
      "name": "roleTypes",
      "outputs": [
        {
          "internalType": "string",
          "name": "",
          "type": "string"
        }
      ],
      "stateMutability": "view",
      "type": "function"
    },
    {
      "inputs": [],
      "name": "roleTypesCount",
      "outputs": [
        {
          "internalType": "uint256",
          "name": "",
          "type": "uint256"
        }
      ],
      "stateMutability": "view",
      "type": "function"
    },
    {
      "inputs": [
        {
          "internalType": "address",
          "name": "",
          "type": "address"
        }
      ],
      "name": "userRole",
      "outputs": [
        {
          "internalType": "uint256",
          "name": "activationTime",
          "type": "uint256"
        },
        {
          "internalType": "bool",
          "name": "isActive",
          "type": "bool"
        },
        {
          "internalType": "string",
          "name": "roleType",
          "type": "string"
        }
      ],
      "stateMutability": "view",
      "type": "function"
    }
  ],
  "bytecode": "0x608060405234801561001057600080fd5b50336000806101000a81548173ffffffffffffffffffffffffffffffffffffffff021916908373ffffffffffffffffffffffffffffffffffffffff160217905550611689806100606000396000f3fe608060405234801561001057600080fd5b50600436106100885760003560e01c8063968923a41161005b578063968923a4146101155780639a496a3c14610131578063be09174d1461014f578063edf26d9b1461017f57610088565b8063297f9af01461008d5780634caa94db146100ab578063534f5680146100c75780637fde1c8a146100f9575b600080fd5b6100956101af565b6040516100a29190610a6a565b60405180910390f35b6100c560048036038101906100c09190610b2f565b6101b5565b005b6100e160048036038101906100dc9190610b6f565b610465565b6040516100f093929190610c3b565b60405180910390f35b610113600480360381019061010e9190610ca5565b610524565b005b61012f600480360381019061012a9190610e1a565b61083e565b005b610139610960565b6040516101469190610a6a565b60405180910390f35b61016960048036038101906101649190610e63565b610966565b6040516101769190610e90565b60405180910390f35b61019960048036038101906101949190610e63565b610a12565b6040516101a69190610ec1565b60405180910390f35b60045481565b60008054906101000a900473ffffffffffffffffffffffffffffffffffffffff1673ffffffffffffffffffffffffffffffffffffffff163373ffffffffffffffffffffffffffffffffffffffff1614610243576040517f08c379a000000000000000000000000000000000000000000000000000000000815260040161023a90610f28565b60405180910390fd5b600073ffffffffffffffffffffffffffffffffffffffff168273ffffffffffffffffffffffffffffffffffffffff16036102b2576040517f08c379a00000000000000000000000000000000000000000000000000000000081526004016102a990610f94565b60405180910390fd5b6000600360008473ffffffffffffffffffffffffffffffffffffffff1673ffffffffffffffffffffffffffffffffffffffff1681526020019081526020016000206000015403610337576040517f08c379a000000000000000000000000000000000000000000000000000000000815260040161032e90611026565b60405180910390fd5b801515600360008473ffffffffffffffffffffffffffffffffffffffff1673ffffffffffffffffffffffffffffffffffffffff16815260200190815260200160002060010160009054906101000a900460ff161515036103cc576040517f08c379a00000000000000000000000000000000000000000000000000000000081526004016103c3906110b8565b60405180910390fd5b80600360008473ffffffffffffffffffffffffffffffffffffffff1673ffffffffffffffffffffffffffffffffffffffff16815260200190815260200160002060010160006101000a81548160ff0219169083151502179055507fb965fe859adbfcaf277bb9d21a5de534aa40f5a06a58dbf224de25d789b063a9828242604051610459939291906110d8565b60405180910390a15050565b60036020528060005260406000206000915090508060000154908060010160009054906101000a900460ff16908060020180546104a19061113e565b80601f01602080910402602001604051908101604052809291908181526020018280546104cd9061113e565b801561051a5780601f106104ef5761010080835404028352916020019161051a565b820191906000526020600020905b8154815290600101906020018083116104fd57829003601f168201915b5050505050905083565b60008054906101000a900473ffffffffffffffffffffffffffffffffffffffff1673ffffffffffffffffffffffffffffffffffffffff163373ffffffffffffffffffffffffffffffffffffffff16146105b2576040517f08c379a00000000000000000000000000000000000000000000000000000000081526004016105a990610f28565b60405180910390fd5b600073ffffffffffffffffffffffffffffffffffffffff168273ffffffffffffffffffffffffffffffffffffffff1603610621576040517f08c379a0000000000000000000000000000000000000000000000000000000008152600401610618906111bb565b60405180910390fd5b60405180606001604052804281526020016001151581526020016001838154811061064f5761064e6111db565b5b9060005260206000200180546106649061113e565b80601f01602080910402602001604051908101604052809291908181526020018280546106909061113e565b80156106dd5780601f106106b2576101008083540402835291602001916106dd565b820191906000526020600020905b8154815290600101906020018083116106c057829003601f168201915b5050505050815250600360008473ffffffffffffffffffffffffffffffffffffffff1673ffffffffffffffffffffffffffffffffffffffff1681526020019081526020016000206000820151816000015560208201518160010160006101000a81548160ff021916908315150217905550604082015181600201908161076391906113b6565b509050506002829080600181540180825580915050600190039060005260206000200160009091909190916101000a81548173ffffffffffffffffffffffffffffffffffffffff021916908373ffffffffffffffffffffffffffffffffffffffff160217905550600460008154809291906107dd906114b7565b91905055507f2d11a6c31a685efcee07cc703c683f35bd414e7dd09aeee874fe401bab830f3a824260018481548110610819576108186111db565b5b9060005260206000200160405161083293929190611583565b60405180910390a15050565b60008054906101000a900473ffffffffffffffffffffffffffffffffffffffff1673ffffffffffffffffffffffffffffffffffffffff163373ffffffffffffffffffffffffffffffffffffffff16146108cc576040517f08c379a00000000000000000000000000000000000000000000000000000000081526004016108c390610f28565b60405180910390fd5b6000815103610910576040517f08c379a000000000000000000000000000000000000000000000000000000000815260040161090790611633565b60405180910390fd5b60056000815480929190610923906114b7565b919050555060018190806001815401808255809150506001900390600052602060002001600090919091909150908161095c91906113b6565b5050565b60055481565b6001818154811061097657600080fd5b9060005260206000200160009150905080546109919061113e565b80601f01602080910402602001604051908101604052809291908181526020018280546109bd9061113e565b8015610a0a5780601f106109df57610100808354040283529160200191610a0a565b820191906000526020600020905b8154815290600101906020018083116109ed57829003601f168201915b505050505081565b60028181548110610a2257600080fd5b906000526020600020016000915054906101000a900473ffffffffffffffffffffffffffffffffffffffff1681565b6000819050919050565b610a6481610a51565b82525050565b6000602082019050610a7f6000830184610a5b565b92915050565b6000604051905090565b600080fd5b600080fd5b600073ffffffffffffffffffffffffffffffffffffffff82169050919050565b6000610ac482610a99565b9050919050565b610ad481610ab9565b8114610adf57600080fd5b50565b600081359050610af181610acb565b92915050565b60008115159050919050565b610b0c81610af7565b8114610b1757600080fd5b50565b600081359050610b2981610b03565b92915050565b60008060408385031215610b4657610b45610a8f565b5b6000610b5485828601610ae2565b9250506020610b6585828601610b1a565b9150509250929050565b600060208284031215610b8557610b84610a8f565b5b6000610b9384828501610ae2565b91505092915050565b610ba581610af7565b82525050565b600081519050919050565b600082825260208201905092915050565b60005b83811015610be5578082015181840152602081019050610bca565b60008484015250505050565b6000601f19601f8301169050919050565b6000610c0d82610bab565b610c178185610bb6565b9350610c27818560208601610bc7565b610c3081610bf1565b840191505092915050565b6000606082019050610c506000830186610a5b565b610c5d6020830185610b9c565b8181036040830152610c6f8184610c02565b9050949350505050565b610c8281610a51565b8114610c8d57600080fd5b50565b600081359050610c9f81610c79565b92915050565b60008060408385031215610cbc57610cbb610a8f565b5b6000610cca85828601610ae2565b9250506020610cdb85828601610c90565b9150509250929050565b600080fd5b600080fd5b7f4e487b7100000000000000000000000000000000000000000000000000000000600052604160045260246000fd5b610d2782610bf1565b810181811067ffffffffffffffff82111715610d4657610d45610cef565b5b80604052505050565b6000610d59610a85565b9050610d658282610d1e565b919050565b600067ffffffffffffffff821115610d8557610d84610cef565b5b610d8e82610bf1565b9050602081019050919050565b82818337600083830152505050565b6000610dbd610db884610d6a565b610d4f565b905082815260208101848484011115610dd957610dd8610cea565b5b610de4848285610d9b565b509392505050565b600082601f830112610e0157610e00610ce5565b5b8135610e11848260208601610daa565b91505092915050565b600060208284031215610e3057610e2f610a8f565b5b600082013567ffffffffffffffff811115610e4e57610e4d610a94565b5b610e5a84828501610dec565b91505092915050565b600060208284031215610e7957610e78610a8f565b5b6000610e8784828501610c90565b91505092915050565b60006020820190508181036000830152610eaa8184610c02565b905092915050565b610ebb81610ab9565b82525050565b6000602082019050610ed66000830184610eb2565b92915050565b7f416363657373206e6f74206772616e7465642e00000000000000000000000000600082015250565b6000610f12601383610bb6565b9150610f1d82610edc565b602082019050919050565b60006020820190508181036000830152610f4181610f05565b9050919050565b7f506c6561652070726f7669646520612076616c696420616464726573732e0000600082015250565b6000610f7e601e83610bb6565b9150610f8982610f48565b602082019050919050565b60006020820190508181036000830152610fad81610f71565b9050919050565b7f546869732061646472657373206973206e6f7420612076616c6964206d656d6260008201527f6572000000000000000000000000000000000000000000000000000000000000602082015250565b6000611010602283610bb6565b915061101b82610fb4565b604082019050919050565b6000602082019050818103600083015261103f81611003565b9050919050565b7f546865206d656d62657220697320616c726561647920696e207468697320737460008201527f6174650000000000000000000000000000000000000000000000000000000000602082015250565b60006110a2602383610bb6565b91506110ad82611046565b604082019050919050565b600060208201905081810360008301526110d181611095565b9050919050565b60006060820190506110ed6000830186610eb2565b6110fa6020830185610b9c565b6111076040830184610a5b565b949350505050565b7f4e487b7100000000000000000000000000000000000000000000000000000000600052602260045260246000fd5b6000600282049050600182168061115657607f821691505b6020821081036111695761116861110f565b5b50919050565b7f506c656173652070726f7669646520612076616c696420616464726573732e00600082015250565b60006111a5601f83610bb6565b91506111b08261116f565b602082019050919050565b600060208201905081810360008301526111d481611198565b9050919050565b7f4e487b7100000000000000000000000000000000000000000000000000000000600052603260045260246000fd5b60008190508160005260206000209050919050565b60006020601f8301049050919050565b600082821b905092915050565b60006008830261126c7fffffffffffffffffffffffffffffffffffffffffffffffffffffffffffffffff8261122f565b611276868361122f565b95508019841693508086168417925050509392505050565b6000819050919050565b60006112b36112ae6112a984610a51565b61128e565b610a51565b9050919050565b6000819050919050565b6112cd83611298565b6112e16112d9826112ba565b84845461123c565b825550505050565b600090565b6112f66112e9565b6113018184846112c4565b505050565b5b818110156113255761131a6000826112ee565b600181019050611307565b5050565b601f82111561136a5761133b8161120a565b6113448461121f565b81016020851015611353578190505b61136761135f8561121f565b830182611306565b50505b505050565b600082821c905092915050565b600061138d6000198460080261136f565b1980831691505092915050565b60006113a6838361137c565b9150826002028217905092915050565b6113bf82610bab565b67ffffffffffffffff8111156113d8576113d7610cef565b5b6113e2825461113e565b6113ed828285611329565b600060209050601f831160018114611420576000841561140e578287015190505b611418858261139a565b865550611480565b601f19841661142e8661120a565b60005b8281101561145657848901518255600182019150602085019450602081019050611431565b86831015611473578489015161146f601f89168261137c565b8355505b6001600288020188555050505b505050505050565b7f4e487b7100000000000000000000000000000000000000000000000000000000600052601160045260246000fd5b60006114c282610a51565b91507fffffffffffffffffffffffffffffffffffffffffffffffffffffffffffffffff82036114f4576114f3611488565b5b600182019050919050565b6000815461150c8161113e565b6115168186610bb6565b9450600182166000811461153157600181146115475761157a565b60ff19831686528115156020028601935061157a565b6115508561120a565b60005b8381101561157257815481890152600182019150602081019050611553565b808801955050505b50505092915050565b60006060820190506115986000830186610eb2565b6115a56020830185610a5b565b81810360408301526115b781846114ff565b9050949350505050565b7f546865206e616d6520666f722074686520726f6c652063616e6e6f742062652060008201527f626c616e6b000000000000000000000000000000000000000000000000000000602082015250565b600061161d602583610bb6565b9150611628826115c1565b604082019050919050565b6000602082019050818103600083015261164c81611610565b905091905056fea2646970667358221220f0dcb30d154b494d3310072e3adbe42b378c8d032b6977b340f7be12212a933b64736f6c63430008110033",
  "linkReferences": {},
  "deployedLinkReferences": {}
}